:100000000C942A000C9447000C9447000C94470071
:100010000C9447000C9447000C9447000C94470044
:100020000C9447000C9447000C9447000C94470034
:100030000C9447000C9447000C9447000C94470024
:100040000C9447000C9447000C9447000C94470014
:100050000C94470011241FBECFE5D8E0DEBFCDBF12
:1000600010E0A0E6B0E0EAE5FEE002C005900D92E7
:10007000A637B107D9F710E0A6E7B0E001C01D929E
:10008000A637B107E1F70E9449000C942B070C94A6
:100090000000CF93DF9300D000D000D0CDB7DEB703
:1000A0000F2EF0E66F2EF0E07F2EF02D0F2EF6E0F3
:1000B000CF2EF02D0E9494030E94F903DE011196C9
:1000C000F3018C2D01900D928150E1F7DD240F2E6C
:1000D000FAE08F2E9924F02D0F2EF4E62F2E3324E4
:1000E000F02D0F2EF0E34F2E5524F02D0E94130417
:1000F000E1E0F0E0EC0FFD1FED0DF11D80838F3F7F
:10010000A9F3813451F08D3341F08B3231F08D32CF
:1001100021F08A3211F08F3219F40E94DD03CACF28
:100120000E94C2038D2D8F5F2FEF32E547E02150F3
:1001300030404040E1F700C0000001E010E00C0F4B
:100140001D1F080F111D0E941304D8018C938F3FAF
:10015000D1F3813451F08D3341F08B3231F08D3257
:1001600021F08A3211F08F3219F40E94DD03A2CF00
:100170000E94C2038D2D8E5F2FEF32E547E02150A4
:1001800030404040E1F700C0000001E010E00C0FFB
:100190001D1F080F111D0E941304D8018C938F3F5F
:1001A000D1F3813411F08D3319F40E94DD0382CF35
:1001B0000E94C2038D2D8D5F2FEF32E547E0215065
:1001C00030404040E1F700C0000001E010E00C0FBB
:1001D0001D1F080F111D0E941304D8018C938F3F1F
:1001E000D1F3813451F08D3341F08B3231F08D32C7
:1001F00021F08A3211F08F3219F40E94DD035ACFB8
:100200000E94C2038D2D8C5F2FEF32E547E0215015
:1002100030404040E1F700C0000001E010E00C0F6A
:100220001D1F080F111D0E941304D8018C938F3FCE
:10023000D1F3813451F08D3341F08B3231F08D3276
:1002400021F08A3211F08F3219F40E94DD0332CF8F
:100250000E94C203B5E0DB0E2FEF32E547E02150EC
:1002600030404040E1F700C00000ED2CFF2401E0E9
:1002700010E00C0F1D1F0E0D1F1D0E941304D8014E
:100280008C938F3FD1F38D3309F01EC20E94C203BD
:10029000EEEFFFEFEC0FFD1FEE0DFF1D80818B32A7
:1002A00069F08C3220F48A3209F011C2F3C08D3229
:1002B00009F478C08F3209F00AC291C1EDEFFFEF67
:1002C000EC0FFD1FEE0DFF1D4081ECEFFFEFEC0F7B
:1002D000FD1FEE0DFF1D808190E0880F991F9C018E
:1002E000220F331F220F331F820F931FFC01E40FD5
:1002F000F11DAF01EFEFFFEFEC0FFD1FEE0DFF1D46
:10030000808190E0880F991F9C01220F331F220FDC
:10031000331F820F931F840F951FFE01EE0DFF1DEB
:100320002081820F911D8C0100521440C801845617
:100330009040F3E084389F07C8F4C801B1010E94DF
:100340000407862F805D0E94C203C801B4010E9489
:100350000407082FCB01B4010E940407805D0E94AE
:10036000C203802F805D0E94C203B1C1C8010A97F9
:100370008A35910570F4C801B4010E940407082F62
:10038000862F805D0E94C203802F805D0E94C20381
:100390009EC10A30110508F09AC1802F805D0E942D
:1003A000C20395C1EDEFFFEFEC0FFD1FEE0DFF1D3A
:1003B0004081ECEFFFEFEC0FFD1FEE0DFF1D808184
:1003C00090E0880F991F9C01220F331F220F331FCB
:1003D000820F931FBC01640F711DFE01EE0DFF1D06
:1003E0008081A201481B5109EFEFFFEFEC0FFD1FC9
:1003F000EE0DFF1D808190E0880F991F9C01220F58
:10040000331F220F331F820F931F9A01281B390BB2
:10041000C901860F971F8C0100531040C8018456F4
:10042000904033E084389307C8F4C801B1010E94BA
:100430000407862F805D0E94C203C801B4010E9498
:100440000407082FCB01B4010E940407805D0E94BD
:10045000C203802F805D0E94C20339C1C8010A9780
:100460008A35910570F4C801B4010E940407082F71
:10047000862F805D0E94C203802F805D0E94C20390
:1004800026C10A30110508F022C1802F805D0E942C
:10049000C2031DC1EDEFFFEFEC0FFD1FEE0DFF1DC1
:1004A0004081ECEFFFEFEC0FFD1FEE0DFF1D808193
:1004B00090E0880F991F9C01220F331F220F331FDA
:1004C000820F931F840F911DAC0140515240EFEFFA
:1004D000FFEFEC0FFD1FEE0DFF1D808190E0880FF8
:1004E000991F9C01220F331F220F331F820F931F6E
:1004F000FE01EE0DFF1D2081820F911D8051924063
:10050000489F8001499F100D589F100D1124C8016C
:10051000885E934043E28832940728F5C80168EE6C
:1005200073E00E940407862F805D0E94C203C80109
:10053000B1010E940407CB01B4010E940407805D51
:100540000E94C203C801B4010E940407082FCB0116
:10055000B4010E940407805D0E94C203802F805D69
:100560000E94C203B4C0C8018456904053E084384E
:100570009507C8F4C801B1010E940407862F805D69
:100580000E94C203C801B4010E940407082FCB01D6
:10059000B4010E940407805D0E94C203802F805D29
:1005A0000E94C20394C0C8010A978A35910570F46D
:1005B000C801B4010E940407082F862F805D0E94A5
:1005C000C203802F805D0E94C20381C00A301105E2
:1005D00008F07DC0802F805D0E94C20378C0EDEFDF
:1005E000FFEFEC0FFD1FEE0DFF1D4081ECEFFFEF65
:1005F000EC0FFD1FEE0DFF1D808190E0880F991F0D
:100600009C01220F331F220F331F820F931F840F71
:10061000911D9C0120513240EFEFFFEFEC0FFD1FC9
:10062000EE0DFF1D608170E0660F771FCB01880F14
:10063000991F880F991F680F791FFE01EE0DFF1D8E
:100640008081680F711D60517240C9010E941807B6
:100650008B01CB0184569040A3E084389A07C8F4FC
:10066000CB01B1010E940407862F805D0E94C20366
:10067000C801B4010E940407082FCB01B4010E94F5
:100680000407805D0E94C203802F805D0E94C20328
:100690001EC0CB010A978A35910570F4CB01B401D5
:1006A0000E940407082F862F805D0E94C203802FBE
:1006B000805D0E94C2030BC06A30710540F4862F32
:1006C000805D0E94C20303C00E94DD03F3CC2FEFC4
:1006D00031EE44E0215030404040E1F700C00000DE
:1006E00005CD82E462E041E00E94DB048FE99FE0F7
:1006F0000197F1F700C0000082E462E040E00E9450
:10070000DB048FE99FE00197F1F700C00000089536
:10071000682F81E40E940A0682E460E040E00E94C3
:10072000DB040E94710308958FEF91EEA4E08150E5
:100730009040A040E1F700C0000081E46FEF0E940C
:10074000F60582E462E041E00E94580482E461E040
:1007500041E00E94580482E460E041E00E945804B5
:1007600082E461E040E00E94DB0488E30E948803A9
:100770008EE00E94880381E00E94880386E00E9448
:1007800088030895682F81E40E940A0682E460E0ED
:1007900041E00E94DB040E9471030895CF93DF9330
:1007A000EC018881882331F021960E94C20389914F
:1007B0008823D9F7DF91CF91089581E00E948803C3
:1007C0000895982F9150923060F4613160F466235F
:1007D00061F0813019F4862F815808C0862F81542A
:1007E00005C080E803C080E801C080E80E9488035B
:1007F0000895CF93DF93C0E084E46C2F41E00E9422
:100800005804DC2FDC5F84E46D2F40E00E94580424
:1008100084E46D2F41E00E943406CF5FC43061F75D
:10082000DF91CF9108950F931F93CF93DF93CDB7AF
:10083000DEB760970FB6F894DEBF0FBECDBFDE0106
:100840001196E6E6F0E080E101900D928150E1F72B
:1008500000E084E46FEF0E940A0684E4602F40E029
:100860000E94DB0410E0612F6C5F84E40E945E054F
:10087000882361F4E02FF0E0EE0FFF1FEE0FFF1F63
:10088000E10FF11DEC0FFD1F818107C01F5F1430C8
:1008900051F70F5F0430E9F68FEF60960FB6F894CA
:1008A000DEBF0FBECDBFDF91CF911F910F91089595
:1008B000823451F1833420F4813409F07BC007C0C5
:1008C000833409F43EC0843409F074C057C0413009
:1008D00069F42AB381E090E0AC0102C0440F551FD7
:1008E0006A95E2F7BA01622B6ABB08952AB381E0E8
:1008F00090E0AC0102C0440F551F6A95E2F7BA01BF
:10090000609562236ABB0895413069F427B381E0A2
:1009100090E0AC0102C0440F551F6A95E2F7BA019E
:10092000622B67BB089527B381E090E0AC0102C061
:10093000440F551F6A95E2F7BA016095622367BBC1
:100940000895413069F424B381E090E0AC0102C025
:10095000440F551F6A95E2F7BA01622B64BB0895F4
:1009600024B381E090E0AC0102C0440F551F6A95AA
:10097000E2F7BA016095622364BB0895413069F4DF
:1009800021B381E090E0AC0102C0440F551F6A958D
:10099000E2F7BA01622B61BB089521B381E090E0D8
:1009A000AC0102C0440F551F6A95E2F7BA01609589
:1009B000622361BB0895823451F1833420F4813481
:1009C00009F07BC007C0833409F43EC0843409F0C9
:1009D00074C057C0413069F42BB381E090E0AC01A2
:1009E00002C0440F551F6A95E2F7BA01622B6BBB38
:1009F00008952BB381E090E0AC0102C0440F551F75
:100A00006A95E2F7BA01609562236BBB08954130A5
:100A100069F428B381E090E0AC0102C0440F551F97
:100A20006A95E2F7BA01622B68BB089528B381E0AA
:100A300090E0AC0102C0440F551F6A95E2F7BA017D
:100A40006095622368BB0895413069F425B381E065
:100A500090E0AC0102C0440F551F6A95E2F7BA015D
:100A6000622B65BB089525B381E090E0AC0102C024
:100A7000440F551F6A95E2F7BA016095622365BB82
:100A80000895413069F422B381E090E0AC0102C0E6
:100A9000440F551F6A95E2F7BA01622B62BB0895B5
:100AA00022B381E090E0AC0102C0440F551F6A956B
:100AB000E2F7BA016095622362BB08958234F1F0D7
:100AC000833420F4813409F04FC006C0833441F1EF
:100AD000843409F049C036C029B381E090E0062E85
:100AE00002C0880F991F0A94E2F730E08223932313
:100AF00002C0959587956A95E2F7089526B381E03F
:100B000090E0062E02C0880F991F0A94E2F730E0A9
:100B10008223932302C0959587956A95E2F70895FD
:100B200023B381E090E0062E02C0880F991F0A943B
:100B3000E2F730E08223932302C0959587956A956A
:100B4000E2F7089520B381E090E0062E02C0880FFE
:100B5000991F0A94E2F730E08223932302C095950F
:100B600087956A95E2F7089580E008958234B9F098
:100B7000833418F48134C9F505C08334E9F0843432
:100B8000A1F527C02BB381E090E0AC0102C0440F77
:100B9000551F6A95E2F7BA0162276BBB089528B327
:100BA00081E090E0AC0102C0440F551F6A95E2F766
:100BB000BA01622768BB089525B381E090E0AC01DB
:100BC00002C0440F551F6A95E2F7BA01622765BB60
:100BD000089522B381E090E0AC0102C0440F551F9C
:100BE0006A95E2F7BA01622762BB0895823461F028
:100BF000833418F4813469F405C0833439F08434C3
:100C000041F406C06ABB089567BB089564BB0895AC
:100C100061BB0895823461F0833418F4813469F43F
:100C200005C0833439F0843441F406C06BBB0895A9
:100C300068BB089565BB089562BB0895823461F076
:100C4000833418F4813471F405C0833439F084346A
:100C500049F406C089B3089586B3089583B308950F
:100C600080B3089580E00895823451F1833420F4F4
:100C7000813409F07BC007C0833409F43EC084345A
:100C800009F074C057C0413069F42BB381E090E0A3
:100C9000AC0102C0440F551F6A95E2F7BA01622BFE
:100CA0006BBB08952BB381E090E0AC0102C0440F10
:100CB000551F6A95E2F7BA01609562236BBB0895F0
:100CC000413069F428B381E090E0AC0102C0440FE8
:100CD000551F6A95E2F7BA01622B68BB089528B3E5
:100CE00081E090E0AC0102C0440F551F6A95E2F725
:100CF000BA016095622368BB0895413069F425B359
:100D000081E090E0AC0102C0440F551F6A95E2F704
:100D1000BA01622B65BB089525B381E090E0AC0178
:100D200002C0440F551F6A95E2F7BA01609562232D
:100D300065BB0895413069F422B381E090E0AC01D5
:100D400002C0440F551F6A95E2F7BA01622B62BBDD
:100D5000089522B381E090E0AC0102C0440F551F1A
:100D60006A95E2F7BA016095622362BB08956F70DD
:100D7000823481F0833418F48134F1F405C0833473
:100D800079F08434C9F412C08BB3807F8BBB8BB3F2
:100D9000862B8BBB88B3807F88BB88B3862B88BBB0
:100DA00085B3807F85BB85B3862B85BB82B3807F6F
:100DB00082BB82B3682B62BB08956295607F8234E8
:100DC00081F0833418F48134F1F405C0833479F070
:100DD0008434C9F412C08BB38F708BBB8BB3862B5A
:100DE0008BBB88B38F7088BB88B3862B88BB85B3D9
:100DF0008F7085BB85B3862B85BB82B38F7082BB1A
:100E000082B3682B62BB0895AA1BBB1B51E107C0CC
:100E1000AA1FBB1FA617B70710F0A61BB70B881F8A
:100E2000991F5A95A9F780959095BC01CD01089519
:100E300097FB092E07260AD077FD04D0E5DF06D000
:100E400000201AF4709561957F4F0895F6F79095FC
:0A0E500081959F4F0895F894FFCF9D
:100E5A00FFFFFFFFFFFF3738392F3435362A31328B
:060E6A00332D41303D2B49
:00000001FF
